:020000040800F2
:10000000E006002079020008AF1A00082D1500084C
:10001000AD1A000887040008B7220008000000009D
:10002000000000000000000000000000C71D0008E4
:100030008904000800000000B11A0008C91D00086A
:10004000930200089302000893020008930200083C
:10005000930200089302000893020008930200082C
:10006000930200089302000893020008930200081C
:10007000930200089302000893020008930200080C
:100080009302000800000000930200089302000899
:1000900093020008930200089302000893020008EC
:1000A00093020008930200089302000893020008DC
:1000B00093020008930200089302000893020008CC
:1000C00093020008930200089302000893020008BC
:1000D00093020008930200089302000893020008AC
:1000E000930200089302000893020008930200089C
:1000F0009302000893020008930200080000000029
:1001000000000000930200080000000093020008B5
:100110009302000800000000930200089302000808
:10012000930200089302000893020008930200085B
:100130009302000800000000000000009302000885
:100140009302000893020008000000000000000075
:10015000000000000000000000000000000000009F
:1001600000000000000000000000000093020008F2
:1001700093020008000000000000000000000000E2
:1001800000000000930200080000000000000000D2
:10019000000000000000000000000000000000005F
:1001A0000000000000000000930200089302000815
:1001B0009302000893020008930200080000000068
:1001C0000000000093020008000000000000000092
:1001D000930200089302000800F002F800F03CF8D7
:1001E0000AA090E8000C82448344AAF10107DA4592
:1001F00001D100F031F8AFF2090EBAE80F0013F0A8
:10020000010F18BFFB1A43F001031847F433000035
:1002100014340000103A24BF78C878C1FAD85207C5
:1002200024BF30C830C144BF04680C607047000070
:100230000023002400250026103A28BF78C1FBD8EF
:10024000520728BF30C148BF0B6070471FB502F08E
:10025000E1F81FBD10B510BD00F09DF81146FFF785
:10026000F5FF02F0A3F800F0BBF803B4FFF7F2FFCC
:1002700003BC00F0C3F80000094880470948004764
:10028000FEE7FEE7FEE7FEE7FEE7FEE7FEE7FEE746
:10029000FEE7FEE704480549054A064B70470000A3
:1002A000351E0008D9010008E0000020E00600200B
:1002B000E0020020E00200200FB41CB5074B06AAA4
:1002C0007B4469460090059800F039F800206946A3
:1002D00000F048F81CBC5DF814FB0000A100000011
:1002E0004FF0000200B5134694469646203922BFCF
:1002F000A0E80C50A0E80C50B1F12001BFF4F7AF1A
:10030000090728BFA0E80C5048BF0CC05DF804EBFB
:10031000890028BF40F8042B08BF704748BF20F869
:10032000022B11F0804F18BF00F8012B7047704767
:100330007047704701694A1C02610878704700B530
:100340008FB0CDE901310021059105497944CDE90E
:1003500003101146684600F00AF80FB000BD000017
:10036000E5FFFFFF0A6802F8010B0A6070472DE9FC
:10037000F04106460024D6E90170F5688046304613
:1003800003E04146B847641C3046A8470028F8D12E
:100390002046BDE8F081754600F02CF8AE46050019
:1003A0006946534620F00700854618B020B5FFF790
:1003B00071FFBDE820404FF000064FF000074FF0FE
:1003C00000084FF0000B21F00701AC46ACE8C00973
:1003D000ACE8C009ACE8C009ACE8C0098D4670477C
:1003E00010B50446AFF300802046BDE81040FFF78B
:1003F0003CBF0000004870478000002001491820E1
:10040000ABBEFEE7260002007047000010EE100AA7
:100410001349884203DC0021124801F031B8DFEDB6
:10042000120A104980EE201A9FED100AF3EE000A1E
:100430000B6821EE000A20EE200ADFED0D0A80EEA7
:10044000801ABCEEC10A10EE100A4208401ED862A3
:10045000C860086842630021024800F093BF0000B2
:100460000AD7233C200000200000704200004843CF
:100470000050434A08B1012200E0002280214FF0E1
:10048000904000F04EB9FEE77047002240F6B833C6
:1004900006E00021491C89B29942FBD3521C92B25A
:1004A0008242F6D3704772B6FEE7000070B504468C
:1004B00000F03CF90546601C02D004484068044442
:1004C00000F034F9401BA042FAD370BD00000020B8
:1004D0002DE9F04FDFF82092002301260324A9F133
:1004E000040B85B00F2709F1040AABF1040EFAE002
:1004F00006FA03F52A407CD091F804C00CF0030CF6
:10050000BCF1010F02D0BCF1020F26D1D0F808C017
:10051000CDF800C04FEA430C04FA0CF8CDF810C037
:10052000DDF800C02CEA080CCDF800C0D1F80C8032
:10053000DDF810C008FA0CF8DDF800C048EA0C0835
:10054000C0F80880D0F804C02CEA050C0D79C5F37A
:1005500000159D4045EA0C0545600D79ED43AD075A
:100560000ED0C5684FEA430804FA08FC25EA0C05DA
:10057000D1F808C00CFA08FC4CEA050CC0F80CC015
:100580000D7905F00305022D16D1DD0800EB850C71
:10059000CDF808C0DCF820805D074FEAD56C07FA7B
:1005A0000CF528EA05080D6905FA0CF5DDF808C018
:1005B00045EA0805CCF8205005684FEA430CCDF811
:1005C00008C004FA0CFC25EA0C0591F804C00CF0F4
:1005D0000308DDF808C008FA0CF848EA0508C0F876
:1005E00000804D6815F4403F7CD0444DD5F860C084
:1005F00000E077E04CF0010CC5F860C02D6E23F0F0
:10060000030C05F0010500953D4D65440295AD686C
:100610004FEA837C4FEA1C7807FA08FC25EA0C05B0
:10062000B0F1904F06D0DFF8DCC0604505D14FF047
:10063000010C20E04FF0000C1DE0DFF8CCC060455D
:1006400002D14FF0020C16E0DFF8C0C0604502D1C5
:100650004FF0030C0FE0DFF8B8C0604502D14FF057
:10066000040C08E0DFF8ACC0604502D14FF0050C87
:1006700001E04FF0060C0CFA08FC4CEA050C029D58
:10068000C5F808C0D9F80050CC46D1F8048095438D
:100690005FEAC82800D51543CCF80050DAF80050BE
:1006A000D446D1F8048095435FEA882800D51543E5
:1006B000CCF80050DBF80050DC46D1F804809543BC
:1006C0005FEA883800D51543CCF80050DEF80050BA
:1006D000F446D1F8048095435FEAC83800D5154345
:1006E000CCF800505B1C0A6832FA03F57FF400AFC7
:1006F00005B0BDE8F08F0000080401400010024082
:10070000000001400004004800080048000C0048B8
:1007100000100048001400480069084000D0012083
:1007200070470AB1816170478162704701488068F3
:1007300070470000000000200248816842681144B0
:10074000816070470000002010B50024032000F0F5
:1007500065F80F2000F008F808B1012401E000F06E
:1007600025F8204610BD000070B50E4E0546002449
:10077000706898B14FF47A71B1FBF0F00A490968DA
:10078000B1FBF0F000F0EAFB40B9102D06D20022D8
:100790002946501E00F022F8356000E00124204672
:1007A00070BD0000000000200C0000200A4882B04C
:1007B000016E41F001010166016E01F0010100913D
:1007C000816D41F080518165806D00F08050009016
:1007D00002B000F093B8000000100240F0B40E4BDD
:1007E0001B680C46C3F30223C3F10705042D00D98F
:1007F0000425191D072901D2002300E0DB1E012674
:1008000006FA05F1491E214099409E40761E164089
:100810003143F0BC01F050BD0CED00E0064900F0A2
:10082000070208684FF6FF03184040EA0220034A17
:1008300010430860704700000CED00E00000FA056E
:100840002B492C4B0A6832214A432B4940B1B0F561
:10085000007F086829D020F4C06040F480602CE05C
:100860000868C0F34120022804D051F8800F20F41A
:10087000807022E0D1F8800020F48070C1F8800000
:10088000086820F4C06040F400700860B2FBF3F028
:10089000401C00E0401E4A69520501D50028F9D1EC
:1008A000486940050AD503207047C0F3412002285B
:1008B00006D051F8800F40F4807008600020704727
:1008C000D1F8800040F48070C1F88000086820F4FE
:1008D000C06040F400700860B2FBF3F0401C00E020
:1008E000401E4A695205DBD50028F9D1D8E700003F
:1008F0000C00002040420F00007000400248816858
:1009000041F4804181607047007000402DE9F0475C
:100910000E4605004FF0000725D0DFF8AC81D8F86F
:10092000000000F00F00B0420CD2D8F8001021F007
:100930000F013143C8F80010D8F8000000F00F0094
:10094000B04210D12968614CC80741F2883A5AD0A8
:100950006868DFF87C91032808D0022820682DD031
:10096000400500282CDB0120BDE8F08720688001CD
:10097000F9D5E06800F00302E068C0F30310401C02
:10098000032A19D0534A00BFB2FBF0F0E268C2F369
:1009900006225043E268C2F34162521C5200B0FB8F
:1009A000F2F0484517D9A06810F0F00F0CD0880776
:1009B00011D5A86840B10EE0474AE5E78003D0E7CB
:1009C00000F092F8484506D9A06820F0F00040F009
:1009D0008000A0608027A068696820F003000843B9
:1009E000A060FFF7A3FE814606E000BFFFF79EFE72
:1009F000A0EB090151453AD8A068696800F00C00E5
:100A0000B0EB810FF2D12868810714D5400703D5D8
:100A1000A06840F4E060A0602878000705D5A068D1
:100A200020F4605040F4E060A060A068A96820F065
:100A3000F000084304E0802F03D1A06820F0F0000C
:100A4000A060D8F80010404601F00F01B14216D95D
:100A5000016821F00F0131430160FFF767FE07468F
:100A600007E000BFFFF762FEC11B514501D903201B
:100A70007AE7D8F8000000F00F00B042F2D12878F1
:100A8000400705D5A068E96820F4E0600843A0604D
:100A90002878000706D5A068296920F4605040EA4C
:100AA000C100A06000F020F8A1680C4AC1F3031156
:100AB000515C01F01F01C8400949086009480068FD
:100AC000BDE8F047FFF750BE002002400010024092
:100AD00000B4C4040024F40000366E011E24000893
:100AE0000C00002000000020184910B58868C0F3F1
:100AF00081021748012A0BD08A68164BC2F3810283
:100B0000022A06D08A68C2F38102032A03D0002099
:100B100010BD184610BDCA6802F00304CA68C2F3CB
:100B20000312521C032C02D0B0FBF2F001E0B3FB25
:100B3000F2F0CA68C968C2F306225043C1F34161AA
:100B4000491C4900B0FBF1F010BD0000001002404C
:100B50000024F40000366E012DE9F84304007AD039
:100B60002078F84DC00747D0A868E96800F00C006D
:100B700001F003010C2802D0082817D001E0032956
:100B800014D06068B0F5803F17D0B0F5A02F28686A
:100B900017D020F480302860286820F48020286056
:100BA0006068E0B1FFF7C2FD064614E028688003E4
:100BB00022D560680028D2D01EE0286840F480303A
:100BC000EDE740F480202860F7E700BFFFF7AEFDB7
:100BD000801B642870D828688003F7D50CE0FFF7E5
:100BE000A5FD064605E000BFFFF7A0FD801B6428B9
:100BF000F0D828688003F7D4207880074CD5A868FF
:100C0000E96800F00C0001F003010C2802D0042870
:100C10000DD001E002290AD0E068002828682BD016
:100C200040F480702860FFF781FD064619E02868CF
:100C3000400502D5E068002891D06868217C20F04A
:100C4000FE4040EA01606860BF480068FFF78CFD25
:100C5000002800D120E072E1FFF768FD801B022828
:100C6000B8D828684005F7D56868217C20F0FE4098
:100C700040EA016068600FE020F480702860FFF7B0
:100C800055FD064605E000BFFFF750FD801B02281A
:100C9000A0D828684005F7D42078000729D56069D6
:100CA0000028D5F8940013D040F00100C5F8940056
:100CB000FFF73CFD064606E090E000BFFFF736FD7B
:100CC000801B022886D8D5F894008007F6D510E05E
:100CD00020F00100C5F89400FFF728FD064604E067
:100CE000FFF724FD801B022878D8D5F894008007F0
:100CF000F6D42078400761D5A86D0026C00008D43E
:100D0000A86D40F08050A865A86D012600F08050C5
:100D100000908E480168C90511D40168804641F4ED
:100D200080710160FFF702FD074604E0FFF7FEFC5B
:100D3000C01B022852D8D8F80000C005F6D5A0681C
:100D4000012815D00528D5F8900016D020F0010014
:100D5000C5F89000D5F8900020F00400C5F8900088
:100D6000A06841F28838B8B1FFF7E0FC07460EE012
:100D7000D5F8900040F00100F0E740F00400C5F81D
:100D80009000F5E7FFF7D2FCC11B414526D8D5F806
:100D900090008007F6D50CE0FFF7C8FC074604E09A
:100DA000FFF7C4FCC11B414518D8D5F89000800757
:100DB000F6D41EB1A86D20F08050A865207880067A
:100DC00029D5A0690028D5F8980013D040F001007B
:100DD000C5F89800FFF7AAFC064606E075E000BFDC
:100DE000FFF7A4FC801B02286FD8D5F89800800775
:100DF000F6D510E020F00100C5F89800FFF796FC4A
:100E0000064604E0FFF792FC801B02285DD8D5F867
:100E100098008007F6D4E069F0B3A968C1F38101B6
:100E200003295DD00228286820F08070286003D054
:100E3000FFF77CFC04464BE0FFF778FC064604E035
:100E4000FFF774FC801B02283FD828688001F7D484
:100E5000F4E908016FF00F0202EB01110843218A47
:100E60005204490802EB4151A26841EA02210843B9
:100E7000217D4FF07E42490802EB41610843217B0E
:100E800040EAC160E968324A11400843E8602868D6
:100E900040F08070286000E05EE0E86840F080701C
:100EA000E860FFF743FC044605E000BFFFF73EFCA7
:100EB000001B022809D828688001F7D54CE000BF44
:100EC000FFF734FC001B022802D90320BDE8F88399
:100ED00028688001F4D4E8681E490840E8603BE0D7
:100EE0000128F3D0E868226A00F00301914226D17C
:100EF000616A00F0F0020901103991421FD1A26A23
:100F000000F4FE41B1EB022F19D194F82C2000F02F
:100F10007841B1EBC26F12D1218E00F4C0024908B2
:100F20004905A1F50011914209D194F8341000F05F
:100F3000C06049084906A1F1007181420CD001202E
:100F4000C4E70000001002400000002000700040D4
:100F50000C809F01FCFFEEFE0020B7E710B5401E9D
:100F6000B0F1807F01D3012010BD4FF0E02460611B
:100F70000F21601701F0A0F90020A0610720206177
:100F8000002010BDF0B590F83C20012A3AD0012590
:100F900080F83C50022280F83D2003685A689C6823
:100FA000194E1A4FB34201D0BB4204D122F4700C47
:100FB0004A6842EA0C02DFF858C002EA0C02D1F893
:100FC00000C04CEA020CC3F804C00268B2420DD063
:100FD000B2F1804F0AD00F4B9A4207D00E4B9A4283
:100FE00004D0BA4202D00D4B9A4204D1896824F051
:100FF00080031943916080F83D50002180F83C1037
:101000000846F0BD0220F0BD002C01400034014034
:101010008FFFFFFD00040040000800400040014039
:1010200010B5040003D094F83D0010B107E0012092
:1010300010BD002084F83C00204600F023F8022078
:1010400084F83D00211D206800F0FCFE012084F89A
:10105000480084F83E0084F83F0084F8400084F89B
:10106000410084F8420084F8430084F8440084F886
:10107000450084F8460084F8470084F83D000020CD
:1010800010BD000008B500680649884208D106482E
:10109000816D41F002018165806D00F002000090D9
:1010A00008BD0000000400400010024070B5044676
:1010B00090F83C000025012814D0012684F83C60FB
:1010C000022084F83D0022689068364B184020F4D6
:1010D0007F409060086870282ED010DC10F00F0F51
:1010E00003D021E04FF0020070BD4FEA2012072A22
:1010F0001AD2DFE802F0525252524A3840002A4BCC
:10110000C21A984249D009DCB0F5805F0DD0B0F525
:10111000005F1CD0B0F1101F06D13EE0102A3CD079
:10112000202A3AD0502A38D0012584F83D6000208A
:1011300084F83C00284670BDCB68D1E901212068C5
:1011400000F0EBFE2068816841F0770109E0CB6890
:10115000D1E90121206800F0E0FE2068816841F4B7
:1011600080418160E1E7CA684968206801F080F841
:101170005021206806E0CA684968206801F089F8B3
:101180006021206800F0D4FECFE7CA684968206873
:1011900001F06EF840212068F4E72268014610460D
:1011A000F0E7000088FFCEFF2000100010B586B0E9
:1011B000044614216846FFF793F80E4920688842D8
:1011C00015D10D48C16C41F00101C164C06C002112
:1011D00000F001000590402000900220CDE90101BF
:1011E000CDE9031069464FF09040FFF771F906B062
:1011F00010BD0000000400400010024070B504461D
:1012000090F83C0000260D4601280BD0012084F800
:101210003C000C2A4AD007DC82B1042A20D0082ADC
:1012200006D131E0022070BD102A53D0142A63D0B9
:101230000126002084F83C00304670BD206800F094
:1012400081FE2068816941F008018161206881691F
:1012500021F004018161206881692A69114311E04C
:10126000206800F0BDFE2068816941F40061816161
:101270002068816921F480618161206881692A691F
:1012800041EA02218161D4E7206800F0F1FE206884
:10129000C16941F00801C1612068C16921F0040100
:1012A000C1612068C1692A69114311E0206800F01A
:1012B00027FF2068C16941F40061C1612068C169EC
:1012C00021F48061C1612068C1692A6941EA022173
:1012D000C161AEE7206800F05BFF2068016D41F05E
:1012E000080101652068016D21F004010165206895
:1012F000016D2A69114311E0206800F081FF206828
:10130000016D41F4006101652068016D21F4806187
:1013100001652068016D2A6941EA0221016588E7BB
:1013200010B5040003D094F83D0010B107E001208F
:1013300010BD002084F83C00204600F022F8022076
:1013400084F83D00211D206800F07CFD012084F818
:10135000480084F83E0084F83F0084F8400084F898
:10136000410084F8420084F8430084F8440084F883
:10137000450084F8460084F8470084F83D000020CA
:1013800010BD704730B50446022269B1042912D05D
:10139000082917D00C291CD0102921D094F843001B
:1013A000012824D0012030BD94F83E000128F9D155
:1013B00084F83E201DE094F83F000128F2D184F823
:1013C0003F2016E094F840000128EBD184F840203B
:1013D0000FE094F841000128E4D184F8412008E0AE
:1013E00094F842000128DDD184F8422001E084F81D
:1013F00043200122206800F083FD194B2068194921
:10140000194A984209D0884207D0904205D0174D1A
:10141000A84202D0164DA84203D1456C45F40045C0
:101420004564206898420CD0B0F1804F09D0114B30
:10143000984206D0104B984203D0884201D0904287
:1014400007D181680D4A1140062906D0B1F5803FC9
:1014500003D0016841F001010160002030BD0000AF
:10146000002C014000340140004001400044014094
:10147000004801400004004000080040070001004F
:1014800030B504460D460068002200F039FD224BBD
:1014900041F2111120688A0098420BD01F4B9842EC
:1014A00008D01F4B984205D01E4B984202D01E4BCD
:1014B000984209D1036A0B4206D1036A134203D151
:1014C000436C23F4004343642068036A0B4206D153
:1014D000016A114203D1016821F00101016001207C
:1014E0005DB1042D0CD0082D0DD00C2D0ED0102D7B
:1014F0000FD084F84300002030BD84F83E00FAE7A6
:1015000084F83F00F7E784F84000F4E784F84100EE
:10151000F1E784F84200EEE7002C0140003401407E
:10152000004001400044014000480140FEE7000047
:1015300000B585B014216846FEF7D2FE4FF6FF7065
:10154000009000200321CDE9020101906946024884
:10155000FEF7BEFF05B000BD0008004800B585B02D
:1015600014216846FEF7BCFE4FF6FF700090012084
:101570000190032003900020029069460248FEF784
:10158000A7FF05B000BD0000000800482DE9F041AC
:101590000A4E80463068002485B22146204600F07D
:1015A00017F900F055F94FF49637404600F024F94A
:1015B000641CBC42F9D33560BDE8F08114080048D2
:1015C00070B586B014216846FEF78AFE1E48C16CCD
:1015D00041F00401C164C16C01F004010591C16CCA
:1015E00041F00101C164C16C01F001010591C16CC0
:1015F00041F00201C164C06C032500F002000590B7
:101600004FF448700124002603958DE85100694687
:101610000E48FEF75DFF200203958DE851004FF064
:10162000904469462046FEF753FFFFF797FFA069F5
:1016300040F48070A06105481830016841F40871D9
:10164000016006B070BD00000010024000040048B8
:10165000203AD2B2034B02EB420203EB021200F03B
:1016600023B800002E2400082DE9F043DFF8348071
:1016700081460E46D8F80000002587B240F23F149C
:1016800007E021464846FFF7E3FF103C6D1CA4B27B
:10169000761C32780AB1142DF3D3C8F80070BDE877
:1016A000F0830000140800482DE9F04791468A466F
:1016B0000026044600F08CF8DFF84080012700BFC8
:1016C00000F0C6F85FF0000539F8160007FA05F1DA
:1016D0000842404601D1408800E0008800F08CF8C4
:1016E0006D1C102DF0D3641CE4B25146204600F06E
:1016F0006FF8761C182EE3D3BDE8F08718000020A1
:1017000070B50D4E306885B2FFF75AFF002000F02B
:1017100017F80A4CA080A088A0F50241303907D004
:1017200000F050FA002000F00BF8A080356070BD8A
:1017300000F0BFF9F6E70000140800481800002088
:1017400070B51D490A6842F400720A600A6842F4E2
:1017500080720A60184C103C226842F0200222601D
:10176000164A1060086840F02000086000BF00BF03
:1017700000BF206840F020002060206840F48070A6
:101780002060FFF7D5FE4FF09041886A40F48070EA
:10179000886200BF00BF00BF0848001F006885B214
:1017A000886940F480708861FFF7D8FE206840F4B3
:1017B00000702060284670BD2804004814080048C6
:1017C00001B5BDF800000149488008BD180000209F
:1017D00010B50C460146202000F068F82146BDE80F
:1017E0001040212000F062B801B5BDF800000149A9
:1017F000088008BD18000020134A116841F40071E8
:101800001160114910390B6843F480730B600B6849
:1018100043F020030B600D4B1860106840F020006F
:10182000106000BF00BF00BF086840F020000860E3
:10183000086840F48070086000BF00BF00BF0868FF
:1018400040F40070086070472804004814080048FD
:101850001449086840F400700860086840F480701B
:10186000086010481038026842F0200202600E4BF7
:1018700022221A600A6842F020020A6000BF00BFFC
:1018800000BF016841F020010160016841F48071EE
:10189000016000BF00BF00BF016841F4007101603A
:1018A000704700002804004814080048184B10B581
:1018B0001A6842F400721A601A6842F480721A6060
:1018C000134A103A146844F020041460114C20604C
:1018D000186840F02000186000BF00BF00BF10680B
:1018E00040F020001060106840F4807010602160AB
:1018F000186840F02000186000BF00BF00BF1068EB
:1019000040F020001060106840F48070106010BD3E
:1019100028040048140800482DE9F04186B014213D
:101920006846FEF7DDFC3648C16C41F00401C16435
:10193000C16C01F004010591C16C41F02001C1644A
:10194000C16C01F020010591C16C41F00101C1643D
:10195000C16C01F001010591C16C41F00201C1644B
:10196000C16C01F002010591C16C41F00801C16434
:10197000C06C244E00F008004FF47F440590012213
:1019800021463046FEF7CDFE4FF090470022A021C1
:101990003846FEF7C6FEDFF870800022042140467C
:1019A000FEF7BFFE0125CDE90045002402946946FB
:1019B00030460394FEF78CFDCDE900546946384665
:1019C0000294FEF785FDA0200090CDE90154694600
:1019D00038460394FEF77CFD0720CDE900046946F4
:1019E0000A480294FEF774FD04200090CDE90154EA
:1019F000694640460394FEF76BFD06B0BDE8F081F2
:101A00000010024000080048000C00480004004894
:101A100010B58EB000240794089409940A940B948E
:101A20000C941C2168460D94FEF75AFC1E481D4973
:101A300001601821C0E9011440F2E731C0E9031444
:101A400080218161FFF7ECFA08B1FEF72CFD4FF41D
:101A50008050079007A91448FFF728FB08B1FEF74C
:101A600022FD1148FFF75CFC08B1FEF71CFD0B944A
:101A70000BA90D480D94FFF785FA08B1FEF713FD89
:101A80006020CDE9000402940022694606480494CF
:101A9000FFF7B4FB08B1FEF706FD0348FFF786FB2E
:101AA0000EB010BD0004004020000020FEE7FEE75D
:101AB000704730B501210020FFF7F8FE4FF47A702F
:101AC000FEF7E3FC00210120FFF7F0FE41F29071E8
:101AD0001020FFF7EBFE4FF41C516020FFF7E6FEED
:101AE00001216120FFF7E2FE02214620FFF7DEFE22
:101AF00048F210011320FFF7D9FE48F2FE01122030
:101B0000FFF7D4FE4FF4A0610220FFF7CFFE41F2B1
:101B100030010320FFF7CAFE40F203342146302093
:101B2000FFF7C4FE21463120FFF7C0FE21463220D8
:101B3000FFF7BCFEE51E29463320FFF7B7FE032161
:101B40003420FFF7B3FE21463520FFF7AFFE142106
:101B50003620FFF7ABFE21463720FFF7A7FE2146D0
:101B60003820FFF7A3FE21463920FFF79FFE2946C4
:101B70003A20FFF79BFE03213B20FFF797FE21460B
:101B80003C20FFF793FE4FF4A0513D20FFF78EFE5F
:101B90004FF400719220FFF789FE21469320FFF752
:101BA00085FE40F60D019020FFF780FE41F21801FE
:101BB0000320FFF77BFEBDE8304040F273110720A1
:101BC000FFF774BE10B543F20801E320FFF76EFE85
:101BD0001221E720FFF76AFE41F23121EF20FFF7E3
:101BE00065FE00210120FFF761FE4FF4E061022055
:101BF000FFF75CFE41F230010320FFF757FE0021A2
:101C00000420FFF753FE40F207210820FFF74EFEA5
:101C100000210920FFF74AFE00210A20FFF746FEB7
:101C200000210C20FFF742FE00210D20FFF73EFEB1
:101C300000210F20FFF73AFE00211020FFF736FEAB
:101C400007211120FFF732FE00211220FFF72EFEA0
:101C500000211320FFF72AFEC820FEF727FC41F2DF
:101C600090611020FFF722FE40F227211120FFF79C
:101C70001DFE3220FEF71AFC1D211220FFF716FE72
:101C80003220FEF713FC4FF400611320FFF70EFE25
:101C900014212920FFF70AFE0B212B20FFF706FE57
:101CA0003220FEF703FC00212020FFF7FFFD00217A
:101CB0002120FFF7FBFD07213020FFF7F7FD40F261
:101CC00007713120FFF7F2FD06213220FFF7EEFD0C
:101CD00040F204713520FFF7E9FD41F6047136202A
:101CE000FFF7E4FD04213720FFF7E0FD0021382055
:101CF000FFF7DCFD40F206713920FFF7D7FD40F217
:101D000001713C20FFF7D2FD0F213D20FFF7CEFDF2
:101D100000215020FFF7CAFDEF215120FFF7C6FD3B
:101D200000215220FFF7C2FD40F23F115320FFF780
:101D3000BDFD4FF41C516020FFF7B8FD012161206B
:101D4000FFF7B4FD00216A20FFF7B0FD00218020DD
:101D5000FFF7ACFD00218120FFF7A8FD00218220C4
:101D6000FFF7A4FD00218320FFF7A0FD00218420C0
:101D7000FFF79CFD00218520FFF798FD10219020A2
:101D8000FFF794FD00219220FFF790FD032193209F
:101D9000FFF78CFD4FF488719520FFF787FD002138
:101DA0009720FFF783FD00219820FFF77FFD41F288
:101DB00018010320FFF77AFDBDE8104040F27311CF
:101DC0000720FFF773BD7047FEF7B6BC10B594B09F
:101DD00038216846FEF784FA14210EA8FEF780FA2F
:101DE0004FF40070FEF72CFD0120009000040190DC
:101DF00002200324CDE907041421CDE90A100C9038
:101E00000D9009946846FEF7A7FE08B172B6FEE78A
:101E10000F20CDE90E0400201090119012900221A5
:101E20000EA8FEF773FD002801D072B6FEE714B0CD
:101E300010BD00000248016841F470010160704764
:101E400088ED00E02DE9F0430268264B264D274E31
:101E5000274C4FF08049984207D0484505D0A8420A
:101E600003D0B04201D0A04203D122F070074A68EB
:101E70003A43204FDFF880C0DFF8808098420DD0D1
:101E800048450BD0A84209D0B04207D0A04205D0A7
:101E9000B84203D0604501D0404503D122F44075DB
:101EA000CA682A434D6922F080022A4302608A6888
:101EB000C2620A688262984207D0A04205D0B84246
:101EC00003D0604501D0404501D10969016301217A
:101ED00041610169C90703D0016921F00101016174
:101EE000BDE8F083002C01400004004000080040E1
:101EF00000340140004001400044014000480140DE
:101F000010B501F01F030121046A99408C4304625B
:101F1000016A9A401143016210BD10B5846842EA1B
:101F2000032224F47F440A432243826010BD000050
:101F30008268034B1A400A4342F0070181607047F0
:101F40008FFFCFFF2DE9F043056A026A22F00102FC
:101F50000262436882691C4C25F0020522400C682D
:101F600022F0030214438A68194E2A43174D194F71
:101F7000DFF864C0DFF86490A84207D0B04205D013
:101F8000B84203D0604501D0484506D122F0080888
:101F9000CA6842EA080222F00402A84207D0B0420E
:101FA00005D0B84203D0604501D0484505D14D6900
:101FB00023F440731D438B692B434360846149685C
:101FC00041630262BDE8F0838FFFFEFF002C0140F9
:101FD00000340140004001400044014000480140FD
:101FE000F0B5056A026A22F0100202624268836953
:101FF000194C1B4E23400C6823F4407343EA04241D
:1020000025F020038D6843EA0513144DA84201D042
:10201000B04206D1CF6823F0800343EA071323F0D0
:102020004003A8420AD0B04208D00E4DA84205D0C5
:102030000D4DA84202D00D4DA84207D14D6922F4A2
:10204000406242EA85028D6942EA8502426084610B
:10205000496881630362F0BDFF8FFFFE002C0140E1
:10206000003401400040014000440140004801406C
:10207000F0B5056A026A22F4807202624368C2699E
:10208000194C1B4E22400C6822F00302144325F425
:1020900000728D6842EA0522144DA84201D0B04278
:1020A00006D1CF6822F4006242EA072222F480625D
:1020B000A8420AD0B04208D00E4DA84205D00E4D1D
:1020C000A84202D00D4DA84207D14D6923F44053D8
:1020D00043EA05138D6943EA05134360C461496807
:1020E000C1630262F0BD00008FFFFEFF002C0140C3
:1020F00000340140004001400044014000480140DC
:10210000F0B5056A026A22F4805202624268C3692D
:10211000194C1B4E23400C6823F4407343EA0424FB
:1021200025F400538D6843EA0533144DA84201D0CD
:10213000B04206D1CF6823F4004343EA073323F4C7
:102140008043A8420AD0B04208D00E4DA84205D024
:102150000D4DA84202D00D4DA84207D14D6922F481
:10216000404242EA85128D6942EA85124260C461AA
:10217000496801640362F0BDFF8FFFFE002C01403F
:10218000003401400040014000440140004801404B
:1021900030B5056A026A22F4803202624268036D39
:1021A000114C23400C681C4325F400330D8943EA8D
:1021B00005430E4DA8420BD00D4DA84208D00D4D41
:1021C000A84205D00C4DA84202D00C4DA84204D123
:1021D0004D6922F4803242EA052242600465496872
:1021E0008164036230BD00008FFFFEFF002C0140C0
:1021F00000340140004001400044014000480140DB
:1022000030B5046A026A22F4801202624268036DE9
:10221000114D24F400142B400D6843EA05230D8969
:1022200044EA05540D4DA8420BD00D4DA84208D0EC
:102230000C4DA84205D00C4DA84202D00B4DA8422F
:1022400004D14D6922F4802242EA8522426003656E
:102250004968C164046230BDFF8FFFFE002C01405D
:10226000003401400040014000440140004801406A
:1022700010B5036A046A24F001040462846924F03E
:10228000F00444EA021423F00A020A438461026261
:1022900010BD10B5036A046A24F010040462846956
:1022A00023F0A00324F4704444EA023243EA01110B
:1022B0008261016210BDFEE70907090E002804DBF8
:1022C00000F1E02080F80014704700F00F0000F1EA
:1022D000E02080F8141D704770B5184D0121284684
:1022E000FEF71AFA164C022120702846FEF714FA5F
:1022F000A07004212846FEF70FFA207101214FF04B
:102300009040FEF709FAA071207830B96078012872
:1023100003D10121084600F027F820786070A078EA
:1023200028B9E078012802D1002100F01DF8A0783A
:10233000E07020796071A079E07170BD0004004800
:102340001000002010B505A10648FDF7B5FFBDE857
:10235000104004491820FFF787B9000020656C2061
:10236000000000006C00002070B50E4E0D460446C3
:10237000012204213046FEF7D4F94FF48070641E28
:10238000A040094B81B20DB1002200E001221846A5
:10239000FEF7C7F93046BDE8704000220421FEF781
:1023A000C0B90000000C004800080048FEF7CCF956
:1023B000FFF70CFDFFF7B0FAFFF72AFB0022202100
:1023C0004FF09040FEF7ADF9002204210F48FEF7D0
:1023D000A8F9FFF795F90020FFF7D8F80020FFF7DC
:1023E000EFF94FF6FF70FFF7FFF90120FEF742F813
:1023F0009FED070AFEF70AF801210320FFF7B4FF5B
:10240000FFF76AFFFFF79EFFF6E70000000C0048A9
:10241000000048424FF04070E1EE100A70470000A3
:102420000000000000000102030406070809000084
:10243000000000000000000000000000000000009C
:10244000000000000000000000000000000000008C
:10245000000000000000000000000000000000007C
:102460008001800180018001800180018001800164
:102470008001800180018001800100000000800156
:1024800080010000000000000000000000000000CB
:102490000000CC00CC00CC00CC00CC00CC00000074
:1024A000000000000000000000000000000000002C
:1024B000000000000000000000000000000000001C
:1024C00000000000000000000000600C600C600CC8
:1024D00030063006FE1FFE1F300638071803FE1FA9
:1024E000FE1F180318038C018C018C0100000000F2
:1024F0008000E003F80F9C0E8C1C8C188C00980058
:10250000F801E007800E801C8C188C189C18B80C01
:10251000F00FE003800080000000000000000000D9
:10252000000000000E181B0C110C110611061103FF
:1025300011039B018E01C038C06C6044604430447C
:1025400030441844186C0C380000000000000000F3
:10255000E001F0033807180618063003F001F00018
:10256000F8009C310E33061E061C061C063FFC7349
:10257000F02100000000000000000000000000004A
:1025800000000C000C000C000C000C000C00000003
:10259000000000000000000000000000000000003B
:1025A000000000000000000000000000000000002B
:1025B000000200038001C000C00060006000300025
:1025C000300030003000300030003000300060005B
:1025D0006000C000C0008001000300020000000095
:1025E00020006000C000800180010003000300069D
:1025F00000060006000600060006000600060003AE
:10260000000380018001C000600020000000000085
:1026100000000000000000000000C000C000D8065C
:10262000F807E00130033807000000000000000058
:10263000000000000000000000000000000000009A
:102640000000000000000000000080018001800107
:1026500080018001FC3FFC3F8001800180018001FE
:1026600080010000000000000000000000000000E9
:10267000000000000000000000000000000000005A
:10268000000000000000000000000000000000004A
:1026900080018001000100018000000000000000B6
:1026A000000000000000000000000000000000002A
:1026B000000000000000E007E0070000000000004C
:1026C000000000000000000000000000000000000A
:1026D00000000000000000000000000000000000FA
:1026E00000000000000000000000000000000000EA
:1026F000C000C0000000000000000000000000005A
:10270000000C000C00060006000600030003000396
:102710008003800180018001C000C000C000600013
:102720006000000000000000000000000000000049
:10273000E003F007380E180C0C180C180C180C18C5
:102740000C180C180C180C180C18180C380EF00774
:10275000E003000000000000000000000000000096
:1027600000018001C001F001980188018001800111
:102770008001800180018001800180018001800151
:1027800080010000000000000000000000000000C8
:10279000E003F80F180C0C180C1800180018000CA7
:1027A000000600038001C000600030001800FC1F1C
:1027B000FC1F0000000000000000000000000000FE
:1027C000E001F807180E0C0C0C0C000C0006C003FE
:1027D000C007000C001800180C180C18180CF8078B
:1027E000E003000000000000000000000000000006
:1027F000000C000E000F000F800DC00C600C600C70
:10280000300C180C0C0CFC3FFC3F000C000C000CB6
:10281000000C0000000000000000000000000000AC
:10282000F80FF80F180018000C00EC03FC071C0E42
:10283000001C0018001800180C181C0C180EF807C3
:10284000E0030000000000000000000000000000A5
:10285000C007F00F381C181818000C00CC03EC0F40
:102860003C0E1C1C0C180C180C18181C380EF00709
:10287000E003000000000000000000000000000075
:10288000FC1FFC1F000C00060006000380038001F3
:10289000C001C000E0006000600070003000300047
:1028A00030000000000000000000000000000000F8
:1028B000E003F007380E180C180C180C3806F00757
:1028C000F007180C0C180C180C180C18380CF80F12
:1028D000E003000000000000000000000000000015
:1028E000E003F007380E1C0C0C180C180C181C1CFC
:1028F000381EF81BE0190018000C000C1C0EF8071D
:10290000F0010000000000000000000000000000D6
:1029100000000000000000000000800180010000B5
:102920000000000000000000000000000000800126
:102930008001000000000000000000000000000016
:102940000000000000000000000080018001000085
:1029500000000000000000000000000000008001F6
:102960008001000100018000000000000000000064
:102970000000000000000000000000000000001047
:10298000001C800FE003F8001800F800E003800F3F
:10299000001C00100000000000000000000000000B
:1029A0000000000000000000000000000000F81F10
:1029B000000000000000F81F000000000000000000
:1029C0000000000000000000000000000000000007
:1029D00000000000000000000000000000000800EF
:1029E0003800F001C007001F0018001FC007F001E9
:1029F0003800080000000000000000000000000097
:102A0000E003F80F180C0C180C180018000C000646
:102A100000038001C000C000C00000000000C00032
:102A2000C0000000000000000000000000000000E6
:102A30000000E00718180420C229224A1144094462
:102A40000944094409221113E20C02400420181819
:102A5000E00700000000000000000000000000008F
:102A600080038003C006C006C006600C600C3018EE
:102A700030183018F83FF83F1C700C600C6006C02E
:102A800006C0000000000000000000000000000080
:102A9000FC03FC0F0C0C0C180C180C180C0CFC078D
:102AA000FC0F0C180C300C300C300C300C18FC1FC8
:102AB000FC07000000000000000000000000000013
:102AC000C007F01F38381C300C7006600600060086
:102AD000060006000600060006600C701C30F01FA1
:102AE000E0070000000000000000000000000000FF
:102AF000FE03FE0F060E06180618063006300630D6
:102B0000063006300630063006180618060EFE0F90
:102B1000FE030000000000000000000000000000B4
:102B2000FC3FFC3F0C000C000C000C000C00FC1FD8
:102B3000FC1F0C000C000C000C000C000C00FC3FF7
:102B4000FC3F00000000000000000000000000004A
:102B5000F83FF83F18001800180018001800F81F78
:102B6000F81F1800180018001800180018001800A6
:102B7000180000000000000000000000000000003D
:102B8000E00FF83F3C780E6006E007C0030003004A
:102B900003FE03FE03C007C006C00EC03CF0F83FB2
:102BA000E00F000000000000000000000000000036
:102BB0000C300C300C300C300C300C300C30FC3F36
:102BC000FC3F0C300C300C300C300C300C300C3026
:102BD0000C300000000000000000000000000000B9
:102BE00080018001800180018001800180018001DD
:102BF00080018001800180018001800180018001CD
:102C00008001000000000000000000000000000043
:102C10000006000600060006000600060006000684
:102C20000006000600060006180618063807F0031E
:102C3000E0010000000000000000000000000000B3
:102C400006300618060C060606038601C600660056
:102C50007600DE008E0106030606060C0618063016
:102C600006600000000000000000000000000000FE
:102C70001800180018001800180018001800180094
:102C80001800180018001800180018001800F81F85
:102C9000F81F00000000000000000000000000001D
:102CA0000EE01EF01EF01EF036D836D836D836D8D4
:102CB00066CC66CC66CCC6C6C6C6C6C6C6C686C305
:102CC00086C30000000000000000000000000000BB
:102CD0000C301C303C303C306C306C30CC30CC3064
:102CE0008C310C330C330C360C360C3C0C3C0C3851
:102CF0000C30000000000000000000000000000098
:102D0000E007F81F1C380E70066003C003C003C044
:102D100003C003C003C003C006600E701C38F81F58
:102D2000E0070000000000000000000000000000BC
:102D3000FC0FFC1F0C380C300C300C300C300C1815
:102D4000FC1FFC070C000C000C000C000C000C001D
:102D50000C00000000000000000000000000000067
:102D6000E007F81F1C380E70066003E003C003C0C4
:102D700003C003C003C007E006630E3F1C3CF83FDE
:102D8000E0F700C0000000000000000000000000AC
:102D9000FE0FFE1F06380630063006300638FE1FCE
:102DA000FE0706030606060C06180618063006304F
:102DB00006600000000000000000000000000000AD
:102DC000E003F80F1C0C0C180C180C001C00F80386
:102DD000E00F001E0038063006300E301C1CF80FC5
:102DE000E0070000000000000000000000000000FC
:102DF000FE7FFE7F800180018001800180018001D3
:102E000080018001800180018001800180018001BA
:102E10008001000000000000000000000000000031
:102E20000C300C300C300C300C300C300C300C30C2
:102E30000C300C300C300C300C300C301818F81FE3
:102E4000E00700000000000000000000000000009B
:102E500003600630063006300C180C180C18180CDD
:102E6000180C380E30063006700760036003C0018E
:102E7000C001000000000000000000000000000091
:102E80000360C361C361C36166336633663366330F
:102E9000663366336C1B6C1B6C1B2C1A3C1E380E85
:102EA000380E0000000000000000000000000000DC
:102EB0000FE00C7018303018700C600EC0078003E3
:102EC0008003C003E006700C301C18180C300E6034
:102ED00007E000000000000000000000000000000B
:102EE00003C006600C301C383818300C6006E00750
:102EF000C003800180018001800180018001800188
:102F00008001000000000000000000000000000040
:102F1000FC7FFC7F006000300018000C00060003FE
:102F20008001C0006000300018000C000600FE7F29
:102F3000FE7F000000000000000000000000000014
:102F4000E003E0036000600060006000600060007B
:102F50006000600060006000600060006000600071
:102F60006000600060006000E003E003000000001B
:102F700030003000600060006000C000C000C00091
:102F8000C0018001800180010003000300030006EE
:102F9000000600000000000000000000000000002B
:102FA000E003E00300030003000300030003000349
:102FB00000030003000300030003000300030003F9
:102FC0000003000300030003E003E003000000002F
:102FD0000000C001C00160036003600330063006DA
:102FE000180C180C00000000000000000000000099
:102FF00000000000000000000000000000000000D1
:1030000000000000000000000000000000000000C0
:1030100000000000000000000000000000000000B0
:10302000FFFFFFFF000000000000000000000000A4
:103030000C000C000C000C000C000C000000000048
:103040000000000000000000000000000000000080
:103050000000000000000000000000000000000070
:1030600000000000000000000000F003F8071C0C46
:103070000C0C000FF00FF80C0C0C0C0C1C0FF80FC4
:10308000F018000000000000000000000000000038
:1030900018001800180018001800D803F80F380C92
:1030A000181818181818181818181818380CF80FB5
:1030B000D803000000000000000000000000000035
:1030C00000000000000000000000C003F007300E08
:1030D000180C1800180018001800180C300EF00713
:1030E000C00300000000000000000000000000001D
:1030F00000180018001800180018C01BF01F301C22
:10310000181818181818181818181818301CF01F44
:10311000C01B0000000000000000000000000000D4
:1031200000000000000000000000C003F00F300CA1
:103130001818F81FF81F180018003818301CF00F66
:10314000C0070000000000000000000000000000B8
:10315000800FC00FC000C000C000F007F007C00023
:10316000C000C000C000C000C000C000C000C0005F
:10317000C00000000000000000000000000000008F
:1031800000000000000000000000E00DF80F180E25
:103190000C0C0C0C0C0C0C0C0C0C0C0C180EF80F72
:1031A000E00D000C0C0C1C06F807F00100000000FC
:1031B00018001800180018001800D807F80F381C5D
:1031C000181818181818181818181818181818187F
:1031D00018180000000000000000000000000000BF
:1031E000C000C000000000000000C000C000C0001F
:1031F000C000C000C000C000C000C000C000C000CF
:10320000C0000000000000000000000000000000FE
:10321000C000C000000000000000C000C000C000EE
:10322000C000C000C000C000C000C000C000C0009E
:10323000C000C000C000C000F8007800000000001E
:103240000C000C000C000C000C000C0C0C060C0309
:103250008C01CC006C00FC009C018C030C030C0660
:103260000C0C000000000000000000000000000046
:10327000C000C000C000C000C000C000C000C0004E
:10328000C000C000C000C000C000C000C000C0003E
:10329000C00000000000000000000000000000006E
:1032A000000000000000000000007C3CFF7EC7E33F
:1032B00083C183C183C183C183C183C183C183C1EE
:1032C00083C10000000000000000000000000000BA
:1032D000000000000000000000009807F80F381CF4
:1032E000181818181818181818181818181818185E
:1032F000181800000000000000000000000000009E
:1033000000000000000000000000C003F00F300CBF
:10331000181818181818181818181818300CF00F52
:10332000C0030000000000000000000000000000DA
:1033300000000000000000000000D803F80F380C67
:10334000181818181818181818181818380CF80F12
:10335000D80318001800180018001800000000001A
:1033600000000000000000000000C01BF01F301C27
:10337000181818181818181818181818301CF01FD2
:10338000C01B0018001800180018001800000000EA
:1033900000000000000000000000B007F003700013
:1033A000300030003000300030003000300030009D
:1033B00030000000000000000000000000000000DD
:1033C00000000000000000000000E003F003380EE1
:1033D000180C3800F003C007000C180C380EF0076A
:1033E000E0030000000000000000000000000000FA
:1033F00000008000C000C000C000F007F007C0005F
:10340000C000C000C000C000C000C000C000C007B5
:103410008007000000000000000000000000000025
:10342000000000000000000000001818181818180C
:10343000181818181818181818181818381CF01F09
:10344000E019000000000000000000000000000083
:10345000000000000000000000000C18180C180C00
:10346000180C300630063006600360036003C001AC
:10347000C00100000000000000000000000000008B
:1034800000000000000000000000C141C141C36114
:103490006363636363633636363636361C1C1C1C26
:1034A0001C1C0000000000000000000000000000E4
:1034B000000000000000000000001C38381C300C28
:1034C000600660036003600360036006300C381C14
:1034D0001C38000000000000000000000000000098
:1034E0000000000000000000000018303018301804
:1034F0007018600C600CE00CC006C00680038003EE
:10350000800380018001C001F00070000000000015
:1035100000000000000000000000FC1FFC1F000C69
:10352000000600038001C000600030001800FC1F8E
:10353000FC1F000000000000000000000000000070
:1035400000038001C000C000C000C000C000C00077
:1035500060006000300060004000C000C000C0009B
:10356000C000C000C0008001000300000000000097
:103570008001800180018001800180018001800143
:103580008001800180018001800180018001800133
:103590008001800180018001800180010000000025
:1035A0006000C000C00180018001800180018001B5
:1035B0000003000300060003000180018001800178
:1035C000800180018001C000600000000000000058
:1035D0000000000000000000000000000000F010EB
:1035E000F81F080F000000000000000000000000AD
:1035F00000000000000000000000000000000000CB
:1036000020360008000000202000000014020008FE
:103610004036000820000020C006000030020008EC
:103620001000000001000000000000000024F40071
:1036300000000000000000000000FFFF000000008C
:04000005080001D915
:00000001FF
